{
  "_format": "hh-sol-artifact-1",
  "contractName": "CompflashLiquidationAdapter",
  "sourceName": "contracts/adapters/CompFlashLiquidationAdapter.sol",
  "abi": [
    {
      "inputs": [
        {
          "internalType": "contract ILendingPoolAddressesProvider",
          "name": "addressesProvider",
          "type": "address"
        },
        {
          "internalType": "contract IUniswapV2Router02",
          "name": "uniswapRouter",
          "type": "address"
        },
        {
          "internalType": "address",
          "name": "wethAddress",
          "type": "address"
        }
      ],
      "stateMutability": "nonpayable",
      "type": "constructor"
    },
    {
      "anonymous": false,
      "inputs": [
        {
          "indexed": true,
          "internalType": "address",
          "name": "previousOwner",
          "type": "address"
        },
        {
          "indexed": true,
          "internalType": "address",
          "name": "newOwner",
          "type": "address"
        }
      ],
      "name": "OwnershipTransferred",
      "type": "event"
    },
    {
      "anonymous": false,
      "inputs": [
        {
          "indexed": false,
          "internalType": "address",
          "name": "fromAsset",
          "type": "address"
        },
        {
          "indexed": false,
          "internalType": "address",
          "name": "toAsset",
          "type": "address"
        },
        {
          "indexed": false,
          "internalType": "uint256",
          "name": "fromAmount",
          "type": "uint256"
        },
        {
          "indexed": false,
          "internalType": "uint256",
          "name": "receivedAmount",
          "type": "uint256"
        }
      ],
      "name": "Swapped",
      "type": "event"
    },
    {
      "inputs": [],
      "name": "ADDRESSES_PROVIDER",
      "outputs": [
        {
          "internalType": "contract ILendingPoolAddressesProvider",
          "name": "",
          "type": "address"
        }
      ],
      "stateMutability": "view",
      "type": "function"
    },
    {
      "inputs": [
        {
          "components": [
            {
              "internalType": "address",
              "name": "collateralCtoken",
              "type": "address"
            },
            {
              "internalType": "address",
              "name": "borrowedCtoken",
              "type": "address"
            },
            {
              "internalType": "address",
              "name": "user",
              "type": "address"
            },
            {
              "internalType": "uint256",
              "name": "debtToCover",
              "type": "uint256"
            },
            {
              "internalType": "bool",
              "name": "useEthPath",
              "type": "bool"
            }
          ],
          "internalType": "struct CompflashLiquidationAdapter.LiquidationParams",
          "name": "arg",
          "type": "tuple"
        }
      ],
      "name": "Execute",
      "outputs": [],
      "stateMutability": "nonpayable",
      "type": "function"
    },
    {
      "inputs": [],
      "name": "FLASHLOAN_PREMIUM_TOTAL",
      "outputs": [
        {
          "internalType": "uint256",
          "name": "",
          "type": "uint256"
        }
      ],
      "stateMutability": "view",
      "type": "function"
    },
    {
      "inputs": [],
      "name": "LENDING_POOL",
      "outputs": [
        {
          "internalType": "contract ILendingPool",
          "name": "",
          "type": "address"
        }
      ],
      "stateMutability": "view",
      "type": "function"
    },
    {
      "inputs": [],
      "name": "MAX_SLIPPAGE_PERCENT",
      "outputs": [
        {
          "internalType": "uint256",
          "name": "",
          "type": "uint256"
        }
      ],
      "stateMutability": "view",
      "type": "function"
    },
    {
      "inputs": [],
      "name": "ORACLE",
      "outputs": [
        {
          "internalType": "contract IPriceOracleGetter",
          "name": "",
          "type": "address"
        }
      ],
      "stateMutability": "view",
      "type": "function"
    },
    {
      "inputs": [],
      "name": "UNISWAP_ROUTER",
      "outputs": [
        {
          "internalType": "contract IUniswapV2Router02",
          "name": "",
          "type": "address"
        }
      ],
      "stateMutability": "view",
      "type": "function"
    },
    {
      "inputs": [],
      "name": "WETH_ADDRESS",
      "outputs": [
        {
          "internalType": "address",
          "name": "",
          "type": "address"
        }
      ],
      "stateMutability": "view",
      "type": "function"
    },
    {
      "inputs": [
        {
          "internalType": "address[]",
          "name": "assets",
          "type": "address[]"
        },
        {
          "internalType": "uint256[]",
          "name": "amounts",
          "type": "uint256[]"
        },
        {
          "internalType": "uint256[]",
          "name": "premiums",
          "type": "uint256[]"
        },
        {
          "internalType": "address",
          "name": "initiator",
          "type": "address"
        },
        {
          "internalType": "bytes",
          "name": "params",
          "type": "bytes"
        }
      ],
      "name": "executeOperation",
      "outputs": [
        {
          "internalType": "bool",
          "name": "",
          "type": "bool"
        }
      ],
      "stateMutability": "nonpayable",
      "type": "function"
    },
    {
      "inputs": [
        {
          "internalType": "uint256",
          "name": "amountOut",
          "type": "uint256"
        },
        {
          "internalType": "address",
          "name": "reserveIn",
          "type": "address"
        },
        {
          "internalType": "address",
          "name": "reserveOut",
          "type": "address"
        }
      ],
      "name": "getAmountsIn",
      "outputs": [
        {
          "internalType": "uint256",
          "name": "",
          "type": "uint256"
        },
        {
          "internalType": "uint256",
          "name": "",
          "type": "uint256"
        },
        {
          "internalType": "uint256",
          "name": "",
          "type": "uint256"
        },
        {
          "internalType": "uint256",
          "name": "",
          "type": "uint256"
        },
        {
          "internalType": "address[]",
          "name": "",
          "type": "address[]"
        }
      ],
      "stateMutability": "view",
      "type": "function"
    },
    {
      "inputs": [
        {
          "internalType": "uint256",
          "name": "amountIn",
          "type": "uint256"
        },
        {
          "internalType": "address",
          "name": "reserveIn",
          "type": "address"
        },
        {
          "internalType": "address",
          "name": "reserveOut",
          "type": "address"
        }
      ],
      "name": "getAmountsOut",
      "outputs": [
        {
          "internalType": "uint256",
          "name": "",
          "type": "uint256"
        },
        {
          "internalType": "uint256",
          "name": "",
          "type": "uint256"
        },
        {
          "internalType": "uint256",
          "name": "",
          "type": "uint256"
        },
        {
          "internalType": "uint256",
          "name": "",
          "type": "uint256"
        },
        {
          "internalType": "address[]",
          "name": "",
          "type": "address[]"
        }
      ],
      "stateMutability": "view",
      "type": "function"
    },
    {
      "inputs": [],
      "name": "owner",
      "outputs": [
        {
          "internalType": "address",
          "name": "",
          "type": "address"
        }
      ],
      "stateMutability": "view",
      "type": "function"
    },
    {
      "inputs": [],
      "name": "renounceOwnership",
      "outputs": [],
      "stateMutability": "nonpayable",
      "type": "function"
    },
    {
      "inputs": [
        {
          "internalType": "contract IERC20",
          "name": "token",
          "type": "address"
        }
      ],
      "name": "rescueTokens",
      "outputs": [],
      "stateMutability": "nonpayable",
      "type": "function"
    },
    {
      "inputs": [
        {
          "internalType": "address",
          "name": "newOwner",
          "type": "address"
        }
      ],
      "name": "transferOwnership",
      "outputs": [],
      "stateMutability": "nonpayable",
      "type": "function"
    }
  ],
  "bytecode": "0x6101206040523480156200001257600080fd5b50604051620033bf380380620033bf8339810160408190526200003591620001fd565b82828282806001600160a01b03166080816001600160a01b031660601b81525050806001600160a01b0316630261bf8b6040518163ffffffff1660e01b815260040160206040518083038186803b1580156200009057600080fd5b505afa158015620000a5573d6000803e3d6000fd5b505050506040513d601f19601f82011682018060405250810190620000cb9190620001d7565b60601b6001600160601b03191660a052506000620000e8620001d3565b600080546001600160a01b0319166001600160a01b0383169081178255604051929350917f8be0079c531659141344cd1fd0a4f28419497f9722a3daafe3b4186f6b6457e0908290a350826001600160a01b031663fca513a86040518163ffffffff1660e01b815260040160206040518083038186803b1580156200016c57600080fd5b505afa15801562000181573d6000803e3d6000fd5b505050506040513d601f19601f82011682018060405250810190620001a79190620001d7565b6001600160601b0319606091821b811660e05292811b8316610100521b1660c052506200026992505050565b3390565b600060208284031215620001e9578081fd5b8151620001f68162000250565b9392505050565b60008060006060848603121562000212578182fd5b83516200021f8162000250565b6020850151909350620002328162000250565b6040850151909250620002458162000250565b809150509250925092565b6001600160a01b03811681146200026657600080fd5b50565b60805160601c60a05160601c60c05160601c60e05160601c6101005160601c6130ad62000312600039806108b55280611497528061158b5280611a8d5280611ac25280611c56528061206352806121545250806105be528061229e52508061033c528061137152806113ae52806114185280611b405280611f3d5280611f7a5280611fe4525080610539528061067b528061083052806110c852508061036052506130ad6000f3fe608060405234801561001057600080fd5b50600436106100f45760003560e01c8063715018a611610097578063baf7fa9911610066578063baf7fa99146101a4578063cdf58cd6146101c8578063d8264920146101db578063f2fde38b146101e3576100f4565b8063715018a61461016c5780638da5cb5b14610174578063920f5c841461017c578063b4dcfc771461019c576100f4565b8063074b2e43116100d3578063074b2e431461013457806322cf310a1461014957806332e4b2861461015c57806338013f0214610164576100f4565b8062ae3bf8146100f9578063040141e51461010e5780630542975c1461012c575b600080fd5b61010c6101073660046126dd565b6101f6565b005b61011661033a565b6040516101239190612ad3565b60405180910390f35b61011661035e565b61013c610382565b6040516101239190612f4a565b61010c61015736600461292d565b610387565b61013c6105b6565b6101166105bc565b61010c6105e0565b61011661065f565b61018f61018a36600461277f565b61066e565b6040516101239190612c18565b61011661082e565b6101b76101b23660046129b7565b610852565b604051610123959493929190612fa8565b6101b76101d63660046129b7565b610898565b6101166108b3565b61010c6101f13660046126dd565b6108d7565b6101fe61098d565b6000546001600160a01b039081169116146102345760405162461bcd60e51b815260040161022b90612e11565b60405180910390fd5b806001600160a01b031663a9059cbb61024b61065f565b6040516370a0823160e01b81526001600160a01b038516906370a0823190610277903090600401612ad3565b60206040518083038186803b15801561028f57600080fd5b505afa1580156102a3573d6000803e3d6000fd5b505050506040513d601f19601f820116820180604052508101906102c7919061299f565b6040518363ffffffff1660e01b81526004016102e4929190612bdc565b602060405180830381600087803b1580156102fe57600080fd5b505af1158015610312573d6000803e3d6000fd5b505050506040513d601f19601f820116820180604052508101906103369190612911565b5050565b7f000000000000000000000000000000000000000000000000000000000000000081565b7f000000000000000000000000000000000000000000000000000000000000000081565b600981565b604080516001808252818301909252309160609190602080830190803683375050604080516001808252818301909252929350606092915060208083019080368337505060408051600180825281830190925292935060609291506020808301908036833701905050905084602001516001600160a01b0316636f307dc36040518163ffffffff1660e01b815260040160206040518083038186803b15801561042f57600080fd5b505afa158015610443573d6000803e3d6000fd5b505050506040513d601f19601f8201168201806040525081019061046791906126f9565b8360008151811061047457fe5b60200260200101906001600160a01b031690816001600160a01b0316815250508460600151826000815181106104a657fe5b6020026020010181815250506000816000815181106104c157fe5b60209081029190910101523060606104d887610991565b90506000806001600160a01b0316866000815181106104f357fe5b60200260200101516001600160a01b031614156105225760405162461bcd60e51b815260040161022b90612dda565b60405163ab9c4b5d60e01b81526001600160a01b037f0000000000000000000000000000000000000000000000000000000000000000169063ab9c4b5d9061057a908a908a908a908a908a908a908a90600401612b5e565b600060405180830381600087803b15801561059457600080fd5b505af11580156105a8573d6000803e3d6000fd5b505050505050505050505050565b610bb881565b7f000000000000000000000000000000000000000000000000000000000000000081565b6105e861098d565b6000546001600160a01b039081169116146106155760405162461bcd60e51b815260040161022b90612e11565b600080546040516001600160a01b03909116907f8be0079c531659141344cd1fd0a4f28419497f9722a3daafe3b4186f6b6457e0908390a3600080546001600160a01b0319169055565b6000546001600160a01b031690565b6000336001600160a01b037f000000000000000000000000000000000000000000000000000000000000000016146106b85760405162461bcd60e51b815260040161022b90612c36565b6106c06125f2565b6106ff84848080601f0160208091040260200160405190810160405280939291908181526020018383808284376000920191909152506109d692505050565b905060018a1480156107b7575080602001516001600160a01b0316636f307dc36040518163ffffffff1660e01b815260040160206040518083038186803b15801561074957600080fd5b505afa15801561075d573d6000803e3d6000fd5b505050506040513d601f19601f8201168201806040525081019061078191906126f9565b6001600160a01b03168b8b600081811061079757fe5b90506020020160208101906107ac91906126dd565b6001600160a01b0316145b6107d35760405162461bcd60e51b815260040161022b90612e46565b61081d816000015182602001518360400151846060015185608001518e8e60008181106107fc57fe5b905060200201358d8d600081811061081057fe5b905060200201358c610a3c565b5060019a9950505050505050505050565b7f000000000000000000000000000000000000000000000000000000000000000081565b6000806000806060610862612620565b61086d88888b6111df565b8051602082015160408301516060840151608090940151929d919c509a509198509650945050505050565b60008060008060606108a8612620565b61086d88888b61179c565b7f000000000000000000000000000000000000000000000000000000000000000081565b6108df61098d565b6000546001600160a01b0390811691161461090c5760405162461bcd60e51b815260040161022b90612e11565b6001600160a01b0381166109325760405162461bcd60e51b815260040161022b90612c6d565b600080546040516001600160a01b03808516939216917f8be0079c531659141344cd1fd0a4f28419497f9722a3daafe3b4186f6b6457e091a3600080546001600160a01b0319166001600160a01b0392909216919091179055565b3390565b6060816000015182602001518360400151846060015185608001516040516020016109c0959493929190612b01565b6040516020818303038152906040529050919050565b6109de6125f2565b6000806000806000868060200190518101906109fa9190612715565b6040805160a0810182526001600160a01b0396871681529486166020860152929094169183019190915260608201529015156080820152979650505050505050565b610a4461264f565b6000896001600160a01b0316636f307dc36040518163ffffffff1660e01b815260040160206040518083038186803b158015610a7f57600080fd5b505afa158015610a93573d6000803e3d6000fd5b505050506040513d601f19601f82011682018060405250810190610ab791906126f9565b90506000896001600160a01b0316636f307dc36040518163ffffffff1660e01b815260040160206040518083038186803b158015610af457600080fd5b505afa158015610b08573d6000803e3d6000fd5b505050506040513d601f19601f82011682018060405250810190610b2c91906126f9565b6040516370a0823160e01b81529091506001600160a01b038316906370a0823190610b5b903090600401612ad3565b60206040518083038186803b158015610b7357600080fd5b505afa158015610b87573d6000803e3d6000fd5b505050506040513d601f19601f82011682018060405250810190610bab919061299f565b60408401526001600160a01b0382811690821614610c52576040516370a0823160e01b81526001600160a01b038216906370a0823190610bef903090600401612ad3565b60206040518083038186803b158015610c0757600080fd5b505afa158015610c1b573d6000803e3d6000fd5b505050506040513d601f19601f82011682018060405250810190610c3f919061299f565b808452610c4c9087611976565b60e08401525b610c5c86866119c1565b608084015260405163095ea7b360e01b81526001600160a01b0382169063095ea7b390610c96908d906001600160c81b0390600401612bdc565b602060405180830381600087803b158015610cb057600080fd5b505af1158015610cc4573d6000803e3d6000fd5b505050506040513d601f19601f82011682018060405250810190610ce89190612911565b50896001600160a01b031663f5e3c4628a8a8e6040518463ffffffff1660e01b8152600401610d1993929190612bf5565b602060405180830381600087803b158015610d3357600080fd5b505af1158015610d47573d6000803e3d6000fd5b505050506040513d601f19601f82011682018060405250810190610d6b919061299f565b506040516370a0823160e01b81526001600160a01b038c16906370a0823190610d98903090600401612ad3565b60206040518083038186803b158015610db057600080fd5b505afa158015610dc4573d6000803e3d6000fd5b505050506040513d601f19601f82011682018060405250810190610de8919061299f565b610e045760405162461bcd60e51b815260040161022b90612d62565b6040516370a0823160e01b81526001600160a01b038c169063db006a759082906370a0823190610e38903090600401612ad3565b60206040518083038186803b158015610e5057600080fd5b505afa158015610e64573d6000803e3d6000fd5b505050506040513d601f19601f82011682018060405250810190610e88919061299f565b6040518263ffffffff1660e01b8152600401610ea49190612f4a565b602060405180830381600087803b158015610ebe57600080fd5b505af1158015610ed2573d6000803e3d6000fd5b505050506040513d601f19601f82011682018060405250810190610ef6919061299f565b506040516370a0823160e01b81526000906001600160a01b038416906370a0823190610f26903090600401612ad3565b60206040518083038186803b158015610f3e57600080fd5b505afa158015610f52573d6000803e3d6000fd5b505050506040513d601f19601f82011682018060405250810190610f76919061299f565b9050610f8f84604001518261197690919063ffffffff16565b60608501526001600160a01b038381169083161461108a576040516370a0823160e01b81526000906001600160a01b038416906370a0823190610fd6903090600401612ad3565b60206040518083038186803b158015610fee57600080fd5b505afa158015611002573d6000803e3d6000fd5b505050506040513d601f19601f82011682018060405250810190611026919061299f565b905061103f8560e001518261197690919063ffffffff16565b602086018190526060860151608087015161106a928792879290916110649190611976565b8d6119e6565b60a08601819052606086015161107f91611976565b60c08601525061109f565b60608401516110999087611976565b60c08501525b608084015160405163095ea7b360e01b81526001600160a01b0384169163095ea7b3916110f0917f000000000000000000000000000000000000000000000000000000000000000091600401612bdc565b602060405180830381600087803b15801561110a57600080fd5b505af115801561111e573d6000803e3d6000fd5b505050506040513d601f19601f820116820180604052508101906111429190612911565b5060c0840151156105a85760c084015160405163a9059cbb60e01b81526001600160a01b0385169163a9059cbb9161117e918991600401612bdc565b602060405180830381600087803b15801561119857600080fd5b505af11580156111ac573d6000803e3d6000fd5b505050506040513d601f19601f820116820180604052508101906111d09190612911565b50505050505050505050505050565b6111e7612620565b600061120a6112036127106111fd866009611d7a565b90611db4565b8490611976565b9050836001600160a01b0316856001600160a01b031614156112d657600061123186611df6565b6040805160018082528183019092529192506060919060208083019080368337019050509050868160008151811061126557fe5b6001600160a01b039092166020928302919091018201526040805160a081019091528481529081016112a3876111fd87670de0b6b3a7640000611d7a565b81526020016112b3898886611e72565b81526020016112c3898686611e72565b8152602001828152509350505050611795565b6040805160028082526060808301845292602083019080368337019050509050858160008151811061130457fe5b60200260200101906001600160a01b031690816001600160a01b031681525050848160018151811061133257fe5b6001600160a01b0392909216602092830291909101820152604080516003808252608082019092526060928392839291820183803683370190505090507f00000000000000000000000000000000000000000000000000000000000000006001600160a01b0316896001600160a01b0316141580156113e357507f00000000000000000000000000000000000000000000000000000000000000006001600160a01b0316886001600160a01b031614155b1561154f5788816000815181106113f657fe5b60200260200101906001600160a01b031690816001600160a01b0316815250507f00000000000000000000000000000000000000000000000000000000000000008160018151811061144457fe5b60200260200101906001600160a01b031690816001600160a01b031681525050878160028151811061147257fe5b6001600160a01b03928316602091820292909201015260405163d06ca61f60e01b81527f00000000000000000000000000000000000000000000000000000000000000009091169063d06ca61f906114d09088908590600401612f53565b60006040518083038186803b1580156114e857600080fd5b505afa92505050801561151d57506040513d6000823e601f3d908101601f1916820160405261151a919081019061287c565b60015b6115475760408051600380825260808201909252906020820160608036833701905050915061154a565b91505b611571565b6040805160038082526080820190925290602082016060803683370190505091505b60405163d06ca61f60e01b81526000906001600160a01b037f0000000000000000000000000000000000000000000000000000000000000000169063d06ca61f906115c29089908990600401612f53565b60006040518083038186803b1580156115da57600080fd5b505afa92505050801561160f57506040513d6000823e601f3d908101601f1916820160405261160c919081019061287c565b60015b61164f5760408051600280825260608201835290916020830190803683370190505093508260028151811061164057fe5b602002602001015190506116b5565b8094508460018151811061165f57fe5b60200260200101518460028151811061167457fe5b60200260200101511161169b578460018151811061168e57fe5b60200260200101516116b1565b836002815181106116a857fe5b60200260200101515b9150505b60006116c08b611df6565b905060006116cd8b611df6565b905060006117026116e285600a86900a611d7a565b6111fd600a85900a6116fc8d670de0b6b3a7640000611d7a565b90611d7a565b90506040518060a001604052808581526020018281526020016117268f8e87611e72565b81526020016117368e8786611e72565b81526020018515611769578860018151811061174e57fe5b602002602001015186146117625786611764565b895b611787565b60408051600280825260608201835290916020830190803683375050505b905299505050505050505050505b9392505050565b6117a4612620565b826001600160a01b0316846001600160a01b0316141561187a5760006117db6117d46127106111fd866009611d7a565b84906119c1565b905060006117e886611df6565b6040805160018082528183019092529192506060919060208083019080368337019050509050868160008151811061181c57fe5b6001600160a01b039092166020928302919091018201526040805160a0810190915284815290810161185a856111fd89670de0b6b3a7640000611d7a565b815260200161186a898686611e72565b81526020016112c3898886611e72565b606080611888868686611e9b565b9150915060006118e26118bf6127106111fd6009876000815181106118a957fe5b6020026020010151611d7a90919063ffffffff16565b846000815181106118cc57fe5b60200260200101516119c190919063ffffffff16565b905060006118ef88611df6565b905060006118fc88611df6565b9050600061192b61191185600a85900a611d7a565b6111fd600a86900a6116fc8c670de0b6b3a7640000611d7a565b90506040518060a0016040528085815260200182815260200161194f8c8787611e72565b815260200161195f8b8b86611e72565b815260200195909552509298975050505050505050565b60006119b883836040518060400160405280601e81526020017f536166654d6174683a207375627472616374696f6e206f766572666c6f770000815250612258565b90505b92915050565b6000828201838110156119b85760405162461bcd60e51b815260040161022b90612cb3565b6000806119f287611df6565b905060006119ff87611df6565b90506000611a0c89612284565b90506000611a1989612284565b90506000611a5d611a2e612710610bb86119c1565b611a57611a3f86600a89900a611d7a565b6111fd611a5087600a8c900a611d7a565b8d90611d7a565b90612323565b9050808910611a7e5760405162461bcd60e51b815260040161022b90612d1f565b611ab36001600160a01b038c167f00000000000000000000000000000000000000000000000000000000000000006000612395565b611ae76001600160a01b038c167f00000000000000000000000000000000000000000000000000000000000000008b612395565b60608715611bbf576040805160038082526080820190925290602082016060803683370190505090508b81600081518110611b1e57fe5b60200260200101906001600160a01b031690816001600160a01b0316815250507f000000000000000000000000000000000000000000000000000000000000000081600181518110611b6c57fe5b60200260200101906001600160a01b031690816001600160a01b0316815250508a81600281518110611b9a57fe5b60200260200101906001600160a01b031690816001600160a01b031681525050611c3c565b60408051600280825260608201835290916020830190803683370190505090508b81600081518110611bed57fe5b60200260200101906001600160a01b031690816001600160a01b0316815250508a81600181518110611c1b57fe5b60200260200101906001600160a01b031690816001600160a01b0316815250505b604051634401edf760e11b81526060906001600160a01b037f00000000000000000000000000000000000000000000000000000000000000001690638803dbee90611c93908d908f90879030904290600401612f6c565b600060405180830381600087803b158015611cad57600080fd5b505af1158015611cc1573d6000803e3d6000fd5b505050506040513d6000823e601f3d908101601f19168201604052611ce9919081019061287c565b90507fa078c4190abe07940190effc1846be0ccf03ad6007bc9e93f9697d0b460befbb8d8d83600081518110611d1b57fe5b602002602001015184600186510381518110611d3357fe5b6020026020010151604051611d4b9493929190612b35565b60405180910390a180600081518110611d6057fe5b602002602001015197505050505050505095945050505050565b600082611d89575060006119bb565b82820282848281611d9657fe5b04146119b85760405162461bcd60e51b815260040161022b90612d99565b60006119b883836040518060400160405280601a81526020017f536166654d6174683a206469766973696f6e206279207a65726f000000000000815250612494565b6000816001600160a01b031663313ce5676040518163ffffffff1660e01b815260040160206040518083038186803b158015611e3157600080fd5b505afa158015611e45573d6000803e3d6000fd5b505050506040513d601f19601f82011682018060405250810190611e6991906129f8565b60ff1692915050565b600080611e7e85612284565b9050611e92600a84900a6111fd8684611d7a565b95945050505050565b6040805160028082526060828101909352829182918160200160208202803683370190505090508581600081518110611ed057fe5b60200260200101906001600160a01b031690816001600160a01b0316815250508481600181518110611efe57fe5b6001600160a01b0392909216602092830291909101820152604080516003808252608082019092526060928392839291820183803683370190505090507f00000000000000000000000000000000000000000000000000000000000000006001600160a01b0316896001600160a01b031614158015611faf57507f00000000000000000000000000000000000000000000000000000000000000006001600160a01b0316886001600160a01b031614155b1561211b578881600081518110611fc257fe5b60200260200101906001600160a01b031690816001600160a01b0316815250507f00000000000000000000000000000000000000000000000000000000000000008160018151811061201057fe5b60200260200101906001600160a01b031690816001600160a01b031681525050878160028151811061203e57fe5b6001600160a01b0392831660209182029290920101526040516307c0329d60e21b81527f000000000000000000000000000000000000000000000000000000000000000090911690631f00ca749061209c908a908590600401612f53565b60006040518083038186803b1580156120b457600080fd5b505afa9250505080156120e957506040513d6000823e601f3d908101601f191682016040526120e6919081019061287c565b60015b61211357604080516003808252608082019092529060208201606080368337019050509150612116565b91505b61213d565b6040805160038082526080820190925290602082016060803683370190505091505b6040516307c0329d60e21b81526001600160a01b037f00000000000000000000000000000000000000000000000000000000000000001690631f00ca749061218b908a908890600401612f53565b60006040518083038186803b1580156121a357600080fd5b505afa9250505080156121d857506040513d6000823e601f3d908101601f191682016040526121d5919081019061287c565b60015b6121e9579094509250612250915050565b809350836000815181106121f957fe5b60200260200101518360008151811061220e57fe5b602002602001015110801561223857508260008151811061222b57fe5b6020026020010151600014155b612243578385612246565b82825b9650965050505050505b935093915050565b6000818484111561227c5760405162461bcd60e51b815260040161022b9190612c23565b505050900390565b60405163b3596f0760e01b81526000906001600160a01b037f0000000000000000000000000000000000000000000000000000000000000000169063b3596f07906122d3908590600401612ad3565b60206040518083038186803b1580156122eb57600080fd5b505afa1580156122ff573d6000803e3d6000fd5b505050506040513d601f19601f820116820180604052508101906119bb919061299f565b6000821580612330575081155b1561233d575060006119bb565b81611388198161234957fe5b0483111560405180604001604052806002815260200161068760f31b815250906123865760405162461bcd60e51b815260040161022b9190612c23565b50506127109102611388010490565b80158061241d5750604051636eb1769f60e11b81526001600160a01b0384169063dd62ed3e906123cb9030908690600401612ae7565b60206040518083038186803b1580156123e357600080fd5b505afa1580156123f7573d6000803e3d6000fd5b505050506040513d601f19601f8201168201806040525081019061241b919061299f565b155b6124395760405162461bcd60e51b815260040161022b90612ebd565b61248f8363095ea7b360e01b8484604051602401612458929190612bdc565b60408051601f198184030181529190526020810180516001600160e01b03166001600160e01b0319909316929092179091526124cb565b505050565b600081836124b55760405162461bcd60e51b815260040161022b9190612c23565b5060008385816124c157fe5b0495945050505050565b6124dd826001600160a01b03166125b6565b6124f95760405162461bcd60e51b815260040161022b90612f13565b60006060836001600160a01b0316836040516125159190612ab7565b6000604051808303816000865af19150503d8060008114612552576040519150601f19603f3d011682016040523d82523d6000602084013e612557565b606091505b5091509150816125795760405162461bcd60e51b815260040161022b90612cea565b8051156125b057808060200190518101906125949190612911565b6125b05760405162461bcd60e51b815260040161022b90612e73565b50505050565b6000813f7fc5d2460186f7233c927e7db2dcc703c0e500b653ca82273b7bfad8045d85a4708181148015906125ea57508115155b949350505050565b6040805160a08101825260008082526020820181905291810182905260608101829052608081019190915290565b6040518060a0016040528060008152602001600081526020016000815260200160008152602001606081525090565b60405180610100016040528060008152602001600081526020016000815260200160008152602001600081526020016000815260200160008152602001600081525090565b60008083601f8401126126a5578182fd5b50813567ffffffffffffffff8111156126bc578182fd5b60208301915083602080830285010111156126d657600080fd5b9250929050565b6000602082840312156126ee578081fd5b81356119b881613051565b60006020828403121561270a578081fd5b81516119b881613051565b600080600080600060a0868803121561272c578081fd5b855161273781613051565b602087015190955061274881613051565b604087015190945061275981613051565b60608701516080880151919450925061277181613069565b809150509295509295909350565b600080600080600080600080600060a08a8c03121561279c578384fd5b893567ffffffffffffffff808211156127b3578586fd5b6127bf8d838e01612694565b909b50995060208c01359150808211156127d7578586fd5b6127e38d838e01612694565b909950975060408c01359150808211156127fb578586fd5b6128078d838e01612694565b909750955060608c0135915061281c82613051565b90935060808b01359080821115612831578384fd5b818c0191508c601f830112612844578384fd5b813581811115612852578485fd5b8d6020828501011115612863578485fd5b6020830194508093505050509295985092959850929598565b6000602080838503121561288e578182fd5b825167ffffffffffffffff8111156128a4578283fd5b8301601f810185136128b4578283fd5b80516128c76128c282613005565b612fde565b81815283810190838501858402850186018910156128e3578687fd5b8694505b838510156129055780518352600194909401939185019185016128e7565b50979650505050505050565b600060208284031215612922578081fd5b81516119b881613069565b600060a0828403121561293e578081fd5b61294860a0612fde565b823561295381613051565b8152602083013561296381613051565b6020820152604083013561297681613051565b604082015260608381013590820152608083013561299381613069565b60808201529392505050565b6000602082840312156129b0578081fd5b5051919050565b6000806000606084860312156129cb578283fd5b8335925060208401356129dd81613051565b915060408401356129ed81613051565b809150509250925092565b600060208284031215612a09578081fd5b815160ff811681146119b8578182fd5b6000815180845260208085019450808401835b83811015612a515781516001600160a01b031687529582019590820190600101612a2c565b509495945050505050565b6000815180845260208085019450808401835b83811015612a5157815187529582019590820190600101612a6f565b60008151808452612aa3816020860160208601613025565b601f01601f19169290920160200192915050565b60008251612ac9818460208701613025565b9190910192915050565b6001600160a01b0391909116815260200190565b6001600160a01b0392831681529116602082015260400190565b6001600160a01b03958616815293851660208501529190931660408301526060820192909252901515608082015260a00190565b6001600160a01b0394851681529290931660208301526040820152606081019190915260800190565b600060018060a01b03808a16835260e06020840152612b8060e084018a612a19565b8381036040850152612b92818a612a5c565b90508381036060850152612ba68189612a5c565b9050818716608085015283810360a0850152612bc28187612a8b565b9250505061ffff831660c083015298975050505050505050565b6001600160a01b03929092168252602082015260400190565b6001600160a01b0393841681526020810192909252909116604082015260600190565b901515815260200190565b6000602082526119b86020830184612a8b565b6020808252601b908201527f43414c4c45525f4d5553545f42455f4c454e44494e475f504f4f4c0000000000604082015260600190565b60208082526026908201527f4f776e61626c653a206e6577206f776e657220697320746865207a65726f206160408201526564647265737360d01b606082015260800190565b6020808252601b908201527f536166654d6174683a206164646974696f6e206f766572666c6f770000000000604082015260600190565b6020808252818101527f5361666545524332303a206c6f772d6c6576656c2063616c6c206661696c6564604082015260600190565b60208082526023908201527f6d6178416d6f756e74546f5377617020657863656564206d617820736c69707060408201526261676560e81b606082015260800190565b60208082526018908201527f566572696679206c69717569646174696f6e206572726f720000000000000000604082015260600190565b60208082526021908201527f536166654d6174683a206d756c7469706c69636174696f6e206f766572666c6f6040820152607760f81b606082015260800190565b6020808252601e908201527f61737365742063616e206e6f7420736574207a65726f20616464726573730000604082015260600190565b6020808252818101527f4f776e61626c653a2063616c6c6572206973206e6f7420746865206f776e6572604082015260600190565b602080825260139082015272494e434f4e53495354454e545f504152414d5360681b604082015260600190565b6020808252602a908201527f5361666545524332303a204552433230206f7065726174696f6e20646964206e6040820152691bdd081cdd58d8d9595960b21b606082015260800190565b60208082526036908201527f5361666545524332303a20617070726f76652066726f6d206e6f6e2d7a65726f60408201527520746f206e6f6e2d7a65726f20616c6c6f77616e636560501b606082015260800190565b6020808252601f908201527f5361666545524332303a2063616c6c20746f206e6f6e2d636f6e747261637400604082015260600190565b90815260200190565b6000838252604060208301526125ea6040830184612a19565b600086825285602083015260a06040830152612f8b60a0830186612a19565b6001600160a01b0394909416606083015250608001529392505050565b600086825285602083015284604083015283606083015260a06080830152612fd360a0830184612a19565b979650505050505050565b60405181810167ffffffffffffffff81118282101715612ffd57600080fd5b604052919050565b600067ffffffffffffffff82111561301b578081fd5b5060209081020190565b60005b83811015613040578181015183820152602001613028565b838111156125b05750506000910152565b6001600160a01b038116811461306657600080fd5b50565b801515811461306657600080fdfea2646970667358221220a9e14a0abdd4e7d55f5935b75ef82e7f30987b7e76f3f11972aab1fd59913bd164736f6c634300060c0033",
  "linkReferences": {},
  "deployedLinkReferences": {}
}