{
  "_format": "hh-sol-artifact-1",
  "contractName": "FlashLiquidationAdapter",
  "sourceName": "contracts/adapters/FlashLiquidationAdapter.sol",
  "abi": [
    {
      "inputs": [
        {
          "internalType": "contract ILendingPoolAddressesProvider",
          "name": "addressesProvider",
          "type": "address"
        },
        {
          "internalType": "contract IUniswapV2Router02",
          "name": "uniswapRouter",
          "type": "address"
        },
        {
          "internalType": "address",
          "name": "wethAddress",
          "type": "address"
        }
      ],
      "stateMutability": "nonpayable",
      "type": "constructor"
    },
    {
      "anonymous": false,
      "inputs": [
        {
          "indexed": true,
          "internalType": "address",
          "name": "previousOwner",
          "type": "address"
        },
        {
          "indexed": true,
          "internalType": "address",
          "name": "newOwner",
          "type": "address"
        }
      ],
      "name": "OwnershipTransferred",
      "type": "event"
    },
    {
      "anonymous": false,
      "inputs": [
        {
          "indexed": false,
          "internalType": "address",
          "name": "fromAsset",
          "type": "address"
        },
        {
          "indexed": false,
          "internalType": "address",
          "name": "toAsset",
          "type": "address"
        },
        {
          "indexed": false,
          "internalType": "uint256",
          "name": "fromAmount",
          "type": "uint256"
        },
        {
          "indexed": false,
          "internalType": "uint256",
          "name": "receivedAmount",
          "type": "uint256"
        }
      ],
      "name": "Swapped",
      "type": "event"
    },
    {
      "inputs": [],
      "name": "ADDRESSES_PROVIDER",
      "outputs": [
        {
          "internalType": "contract ILendingPoolAddressesProvider",
          "name": "",
          "type": "address"
        }
      ],
      "stateMutability": "view",
      "type": "function"
    },
    {
      "inputs": [
        {
          "components": [
            {
              "internalType": "address",
              "name": "collateralAsset",
              "type": "address"
            },
            {
              "internalType": "address",
              "name": "borrowedAsset",
              "type": "address"
            },
            {
              "internalType": "address",
              "name": "user",
              "type": "address"
            },
            {
              "internalType": "uint256",
              "name": "debtToCover",
              "type": "uint256"
            },
            {
              "internalType": "bool",
              "name": "useEthPath",
              "type": "bool"
            }
          ],
          "internalType": "struct FlashLiquidationAdapter.LiquidationParams",
          "name": "arg",
          "type": "tuple"
        }
      ],
      "name": "Execute",
      "outputs": [],
      "stateMutability": "nonpayable",
      "type": "function"
    },
    {
      "inputs": [],
      "name": "FLASHLOAN_PREMIUM_TOTAL",
      "outputs": [
        {
          "internalType": "uint256",
          "name": "",
          "type": "uint256"
        }
      ],
      "stateMutability": "view",
      "type": "function"
    },
    {
      "inputs": [],
      "name": "LENDING_POOL",
      "outputs": [
        {
          "internalType": "contract ILendingPool",
          "name": "",
          "type": "address"
        }
      ],
      "stateMutability": "view",
      "type": "function"
    },
    {
      "inputs": [],
      "name": "MAX_SLIPPAGE_PERCENT",
      "outputs": [
        {
          "internalType": "uint256",
          "name": "",
          "type": "uint256"
        }
      ],
      "stateMutability": "view",
      "type": "function"
    },
    {
      "inputs": [],
      "name": "ORACLE",
      "outputs": [
        {
          "internalType": "contract IPriceOracleGetter",
          "name": "",
          "type": "address"
        }
      ],
      "stateMutability": "view",
      "type": "function"
    },
    {
      "inputs": [],
      "name": "UNISWAP_ROUTER",
      "outputs": [
        {
          "internalType": "contract IUniswapV2Router02",
          "name": "",
          "type": "address"
        }
      ],
      "stateMutability": "view",
      "type": "function"
    },
    {
      "inputs": [],
      "name": "WETH_ADDRESS",
      "outputs": [
        {
          "internalType": "address",
          "name": "",
          "type": "address"
        }
      ],
      "stateMutability": "view",
      "type": "function"
    },
    {
      "inputs": [
        {
          "internalType": "address[]",
          "name": "assets",
          "type": "address[]"
        },
        {
          "internalType": "uint256[]",
          "name": "amounts",
          "type": "uint256[]"
        },
        {
          "internalType": "uint256[]",
          "name": "premiums",
          "type": "uint256[]"
        },
        {
          "internalType": "address",
          "name": "initiator",
          "type": "address"
        },
        {
          "internalType": "bytes",
          "name": "params",
          "type": "bytes"
        }
      ],
      "name": "executeOperation",
      "outputs": [
        {
          "internalType": "bool",
          "name": "",
          "type": "bool"
        }
      ],
      "stateMutability": "nonpayable",
      "type": "function"
    },
    {
      "inputs": [
        {
          "internalType": "uint256",
          "name": "amountOut",
          "type": "uint256"
        },
        {
          "internalType": "address",
          "name": "reserveIn",
          "type": "address"
        },
        {
          "internalType": "address",
          "name": "reserveOut",
          "type": "address"
        }
      ],
      "name": "getAmountsIn",
      "outputs": [
        {
          "internalType": "uint256",
          "name": "",
          "type": "uint256"
        },
        {
          "internalType": "uint256",
          "name": "",
          "type": "uint256"
        },
        {
          "internalType": "uint256",
          "name": "",
          "type": "uint256"
        },
        {
          "internalType": "uint256",
          "name": "",
          "type": "uint256"
        },
        {
          "internalType": "address[]",
          "name": "",
          "type": "address[]"
        }
      ],
      "stateMutability": "view",
      "type": "function"
    },
    {
      "inputs": [
        {
          "internalType": "uint256",
          "name": "amountIn",
          "type": "uint256"
        },
        {
          "internalType": "address",
          "name": "reserveIn",
          "type": "address"
        },
        {
          "internalType": "address",
          "name": "reserveOut",
          "type": "address"
        }
      ],
      "name": "getAmountsOut",
      "outputs": [
        {
          "internalType": "uint256",
          "name": "",
          "type": "uint256"
        },
        {
          "internalType": "uint256",
          "name": "",
          "type": "uint256"
        },
        {
          "internalType": "uint256",
          "name": "",
          "type": "uint256"
        },
        {
          "internalType": "uint256",
          "name": "",
          "type": "uint256"
        },
        {
          "internalType": "address[]",
          "name": "",
          "type": "address[]"
        }
      ],
      "stateMutability": "view",
      "type": "function"
    },
    {
      "inputs": [],
      "name": "owner",
      "outputs": [
        {
          "internalType": "address",
          "name": "",
          "type": "address"
        }
      ],
      "stateMutability": "view",
      "type": "function"
    },
    {
      "inputs": [],
      "name": "renounceOwnership",
      "outputs": [],
      "stateMutability": "nonpayable",
      "type": "function"
    },
    {
      "inputs": [
        {
          "internalType": "contract IERC20",
          "name": "token",
          "type": "address"
        }
      ],
      "name": "rescueTokens",
      "outputs": [],
      "stateMutability": "nonpayable",
      "type": "function"
    },
    {
      "inputs": [
        {
          "internalType": "address",
          "name": "newOwner",
          "type": "address"
        }
      ],
      "name": "transferOwnership",
      "outputs": [],
      "stateMutability": "nonpayable",
      "type": "function"
    }
  ],
  "bytecode": "0x6101206040523480156200001257600080fd5b5060405162002f9a38038062002f9a8339810160408190526200003591620001fd565b82828282806001600160a01b03166080816001600160a01b031660601b81525050806001600160a01b0316630261bf8b6040518163ffffffff1660e01b815260040160206040518083038186803b1580156200009057600080fd5b505afa158015620000a5573d6000803e3d6000fd5b505050506040513d601f19601f82011682018060405250810190620000cb9190620001d7565b60601b6001600160601b03191660a052506000620000e8620001d3565b600080546001600160a01b0319166001600160a01b0383169081178255604051929350917f8be0079c531659141344cd1fd0a4f28419497f9722a3daafe3b4186f6b6457e0908290a350826001600160a01b031663fca513a86040518163ffffffff1660e01b815260040160206040518083038186803b1580156200016c57600080fd5b505afa15801562000181573d6000803e3d6000fd5b505050506040513d601f19601f82011682018060405250810190620001a79190620001d7565b6001600160601b0319606091821b811660e05292811b8316610100521b1660c052506200026992505050565b3390565b600060208284031215620001e9578081fd5b8151620001f68162000250565b9392505050565b60008060006060848603121562000212578182fd5b83516200021f8162000250565b6020850151909350620002328162000250565b6040850151909250620002458162000250565b809150509250925092565b6001600160a01b03811681146200026657600080fd5b50565b60805160601c60a05160601c60c05160601c60e05160601c6101005160601c612c7e6200031c6000398061078f52806111155280611209528061170b528061174052806118d45280611ce15280611dd25250806105085280611f1c52508061033c5280610fef528061102c528061109652806117be5280611bbb5280611bf85280611c6252508061046e52806105c5528061070a5280610a745280610b075280610d475250806103605250612c7e6000f3fe608060405234801561001057600080fd5b50600436106100f45760003560e01c8063715018a611610097578063baf7fa9911610066578063baf7fa99146101a4578063cdf58cd6146101c8578063d8264920146101db578063f2fde38b146101e3576100f4565b8063715018a61461016c5780638da5cb5b14610174578063920f5c841461017c578063b4dcfc771461019c576100f4565b8063074b2e43116100d3578063074b2e431461013457806322cf310a1461014957806332e4b2861461015c57806338013f0214610164576100f4565b8062ae3bf8146100f9578063040141e51461010e5780630542975c1461012c575b600080fd5b61010c61010736600461235b565b6101f6565b005b61011661033a565b6040516101239190612735565b60405180910390f35b61011661035e565b61013c610382565b6040516101239190612b1b565b61010c61015736600461258f565b610387565b61013c610500565b610116610506565b61010c61052a565b6101166105a9565b61018f61018a3660046123e1565b6105b8565b6040516101239190612857565b610116610708565b6101b76101b2366004612619565b61072c565b604051610123959493929190612b79565b6101b76101d6366004612619565b610772565b61011661078d565b61010c6101f136600461235b565b6107b1565b6101fe610867565b6000546001600160a01b039081169116146102345760405162461bcd60e51b815260040161022b906129e2565b60405180910390fd5b806001600160a01b031663a9059cbb61024b6105a9565b6040516370a0823160e01b81526001600160a01b038516906370a0823190610277903090600401612735565b60206040518083038186803b15801561028f57600080fd5b505afa1580156102a3573d6000803e3d6000fd5b505050506040513d601f19601f820116820180604052508101906102c79190612601565b6040518363ffffffff1660e01b81526004016102e492919061283e565b602060405180830381600087803b1580156102fe57600080fd5b505af1158015610312573d6000803e3d6000fd5b505050506040513d601f19601f820116820180604052508101906103369190612573565b5050565b7f000000000000000000000000000000000000000000000000000000000000000081565b7f000000000000000000000000000000000000000000000000000000000000000081565b600981565b604080516001808252818301909252309160609190602080830190803683375050604080516001808252818301909252929350606092915060208083019080368337505060408051600180825281830190925292935060609291506020808301908036833701905050905084602001518360008151811061040457fe5b60200260200101906001600160a01b031690816001600160a01b03168152505084606001518260008151811061043657fe5b60200260200101818152505060008160008151811061045157fe5b60209081029190910101523060606104688761086b565b905060007f00000000000000000000000000000000000000000000000000000000000000006001600160a01b031663ab9c4b5d888888888888886040518863ffffffff1660e01b81526004016104c497969594939291906127c0565b600060405180830381600087803b1580156104de57600080fd5b505af11580156104f2573d6000803e3d6000fd5b505050505050505050505050565b610bb881565b7f000000000000000000000000000000000000000000000000000000000000000081565b610532610867565b6000546001600160a01b0390811691161461055f5760405162461bcd60e51b815260040161022b906129e2565b600080546040516001600160a01b03909116907f8be0079c531659141344cd1fd0a4f28419497f9722a3daafe3b4186f6b6457e0908390a3600080546001600160a01b0319169055565b6000546001600160a01b031690565b6000336001600160a01b037f000000000000000000000000000000000000000000000000000000000000000016146106025760405162461bcd60e51b815260040161022b90612875565b61060a612270565b61064984848080601f0160208091040260200160405190810160405280939291908181526020018383808284376000920191909152506108b092505050565b905060018a148015610691575080602001516001600160a01b03168b8b600081811061067157fe5b9050602002016020810190610686919061235b565b6001600160a01b0316145b6106ad5760405162461bcd60e51b815260040161022b90612a17565b6106f7816000015182602001518360400151846060015185608001518e8e60008181106106d657fe5b905060200201358d8d60008181106106ea57fe5b905060200201358c610916565b5060019a9950505050505050505050565b7f000000000000000000000000000000000000000000000000000000000000000081565b600080600080606061073c61229e565b61074788888b610e5d565b8051602082015160408301516060840151608090940151929d919c509a509198509650945050505050565b600080600080606061078261229e565b61074788888b61141a565b7f000000000000000000000000000000000000000000000000000000000000000081565b6107b9610867565b6000546001600160a01b039081169116146107e65760405162461bcd60e51b815260040161022b906129e2565b6001600160a01b03811661080c5760405162461bcd60e51b815260040161022b906128ac565b600080546040516001600160a01b03808516939216917f8be0079c531659141344cd1fd0a4f28419497f9722a3daafe3b4186f6b6457e091a3600080546001600160a01b0319166001600160a01b0392909216919091179055565b3390565b60608160000151826020015183604001518460600151856080015160405160200161089a959493929190612763565b6040516020818303038152906040529050919050565b6108b8612270565b6000806000806000868060200190518101906108d49190612377565b6040805160a0810182526001600160a01b0396871681529486166020860152929094169183019190915260608201529015156080820152979650505050505050565b61091e6122cd565b6040516370a0823160e01b81526001600160a01b038a16906370a082319061094a903090600401612735565b60206040518083038186803b15801561096257600080fd5b505afa158015610976573d6000803e3d6000fd5b505050506040513d601f19601f8201168201806040525081019061099a9190612601565b60408201526001600160a01b0389811690891614610a41576040516370a0823160e01b81526001600160a01b038916906370a08231906109de903090600401612735565b60206040518083038186803b1580156109f657600080fd5b505afa158015610a0a573d6000803e3d6000fd5b505050506040513d601f19601f82011682018060405250810190610a2e9190612601565b808252610a3b90856115f4565b60e08201525b610a4b848461163f565b608082015260405163095ea7b360e01b81526001600160a01b0389169063095ea7b390610a9e907f0000000000000000000000000000000000000000000000000000000000000000908a9060040161283e565b602060405180830381600087803b158015610ab857600080fd5b505af1158015610acc573d6000803e3d6000fd5b505050506040513d601f19601f82011682018060405250810190610af09190612573565b5060405162a718a960e01b81526001600160a01b037f0000000000000000000000000000000000000000000000000000000000000000169062a718a990610b44908c908c908c908c90600090600401612763565b600060405180830381600087803b158015610b5e57600080fd5b505af1158015610b72573d6000803e3d6000fd5b50506040516370a0823160e01b8152600092506001600160a01b038c1691506370a0823190610ba5903090600401612735565b60206040518083038186803b158015610bbd57600080fd5b505afa158015610bd1573d6000803e3d6000fd5b505050506040513d601f19601f82011682018060405250810190610bf59190612601565b9050610c0e8260400151826115f490919063ffffffff16565b60608301526001600160a01b038a8116908a1614610d09576040516370a0823160e01b81526000906001600160a01b038b16906370a0823190610c55903090600401612735565b60206040518083038186803b158015610c6d57600080fd5b505afa158015610c81573d6000803e3d6000fd5b505050506040513d601f19601f82011682018060405250810190610ca59190612601565b9050610cbe8360e00151826115f490919063ffffffff16565b6020840181905260608401516080850151610ce9928e928e929091610ce391906115f4565b8b611664565b60a084018190526060840151610cfe916115f4565b60c084015250610d1e565b6060820151610d1890856115f4565b60c08301525b608082015160405163095ea7b360e01b81526001600160a01b038b169163095ea7b391610d6f917f00000000000000000000000000000000000000000000000000000000000000009160040161283e565b602060405180830381600087803b158015610d8957600080fd5b505af1158015610d9d573d6000803e3d6000fd5b505050506040513d601f19601f82011682018060405250810190610dc19190612573565b5060c082015115610e515760c082015160405163a9059cbb60e01b81526001600160a01b038c169163a9059cbb91610dfd91879160040161283e565b602060405180830381600087803b158015610e1757600080fd5b505af1158015610e2b573d6000803e3d6000fd5b505050506040513d601f19601f82011682018060405250810190610e4f9190612573565b505b50505050505050505050565b610e6561229e565b6000610e88610e81612710610e7b8660096119f8565b90611a32565b84906115f4565b9050836001600160a01b0316856001600160a01b03161415610f54576000610eaf86611a74565b60408051600180825281830190925291925060609190602080830190803683370190505090508681600081518110610ee357fe5b6001600160a01b039092166020928302919091018201526040805160a08101909152848152908101610f2187610e7b87670de0b6b3a76400006119f8565b8152602001610f31898886611af0565b8152602001610f41898686611af0565b8152602001828152509350505050611413565b60408051600280825260608083018452926020830190803683370190505090508581600081518110610f8257fe5b60200260200101906001600160a01b031690816001600160a01b0316815250508481600181518110610fb057fe5b6001600160a01b0392909216602092830291909101820152604080516003808252608082019092526060928392839291820183803683370190505090507f00000000000000000000000000000000000000000000000000000000000000006001600160a01b0316896001600160a01b03161415801561106157507f00000000000000000000000000000000000000000000000000000000000000006001600160a01b0316886001600160a01b031614155b156111cd57888160008151811061107457fe5b60200260200101906001600160a01b031690816001600160a01b0316815250507f0000000000000000000000000000000000000000000000000000000000000000816001815181106110c257fe5b60200260200101906001600160a01b031690816001600160a01b03168152505087816002815181106110f057fe5b6001600160a01b03928316602091820292909201015260405163d06ca61f60e01b81527f00000000000000000000000000000000000000000000000000000000000000009091169063d06ca61f9061114e9088908590600401612b24565b60006040518083038186803b15801561116657600080fd5b505afa92505050801561119b57506040513d6000823e601f3d908101601f1916820160405261119891908101906124de565b60015b6111c5576040805160038082526080820190925290602082016060803683370190505091506111c8565b91505b6111ef565b6040805160038082526080820190925290602082016060803683370190505091505b60405163d06ca61f60e01b81526000906001600160a01b037f0000000000000000000000000000000000000000000000000000000000000000169063d06ca61f906112409089908990600401612b24565b60006040518083038186803b15801561125857600080fd5b505afa92505050801561128d57506040513d6000823e601f3d908101601f1916820160405261128a91908101906124de565b60015b6112cd576040805160028082526060820183529091602083019080368337019050509350826002815181106112be57fe5b60200260200101519050611333565b809450846001815181106112dd57fe5b6020026020010151846002815181106112f257fe5b602002602001015111611319578460018151811061130c57fe5b602002602001015161132f565b8360028151811061132657fe5b60200260200101515b9150505b600061133e8b611a74565b9050600061134b8b611a74565b9050600061138061136085600a86900a6119f8565b610e7b600a85900a61137a8d670de0b6b3a76400006119f8565b906119f8565b90506040518060a001604052808581526020018281526020016113a48f8e87611af0565b81526020016113b48e8786611af0565b815260200185156113e757886001815181106113cc57fe5b602002602001015186146113e057866113e2565b895b611405565b60408051600280825260608201835290916020830190803683375050505b905299505050505050505050505b9392505050565b61142261229e565b826001600160a01b0316846001600160a01b031614156114f8576000611459611452612710610e7b8660096119f8565b849061163f565b9050600061146686611a74565b6040805160018082528183019092529192506060919060208083019080368337019050509050868160008151811061149a57fe5b6001600160a01b039092166020928302919091018201526040805160a081019091528481529081016114d885610e7b89670de0b6b3a76400006119f8565b81526020016114e8898686611af0565b8152602001610f41898886611af0565b606080611506868686611b19565b91509150600061156061153d612710610e7b60098760008151811061152757fe5b60200260200101516119f890919063ffffffff16565b8460008151811061154a57fe5b602002602001015161163f90919063ffffffff16565b9050600061156d88611a74565b9050600061157a88611a74565b905060006115a961158f85600a85900a6119f8565b610e7b600a86900a61137a8c670de0b6b3a76400006119f8565b90506040518060a001604052808581526020018281526020016115cd8c8787611af0565b81526020016115dd8b8b86611af0565b815260200195909552509298975050505050505050565b600061163683836040518060400160405280601e81526020017f536166654d6174683a207375627472616374696f6e206f766572666c6f770000815250611ed6565b90505b92915050565b6000828201838110156116365760405162461bcd60e51b815260040161022b906128f2565b60008061167087611a74565b9050600061167d87611a74565b9050600061168a89611f02565b9050600061169789611f02565b905060006116db6116ac612710610bb861163f565b6116d56116bd86600a89900a6119f8565b610e7b6116ce87600a8c900a6119f8565b8d906119f8565b90611fa1565b90508089106116fc5760405162461bcd60e51b815260040161022b9061295e565b6117316001600160a01b038c167f00000000000000000000000000000000000000000000000000000000000000006000612013565b6117656001600160a01b038c167f00000000000000000000000000000000000000000000000000000000000000008b612013565b6060871561183d576040805160038082526080820190925290602082016060803683370190505090508b8160008151811061179c57fe5b60200260200101906001600160a01b031690816001600160a01b0316815250507f0000000000000000000000000000000000000000000000000000000000000000816001815181106117ea57fe5b60200260200101906001600160a01b031690816001600160a01b0316815250508a8160028151811061181857fe5b60200260200101906001600160a01b031690816001600160a01b0316815250506118ba565b60408051600280825260608201835290916020830190803683370190505090508b8160008151811061186b57fe5b60200260200101906001600160a01b031690816001600160a01b0316815250508a8160018151811061189957fe5b60200260200101906001600160a01b031690816001600160a01b0316815250505b604051634401edf760e11b81526060906001600160a01b037f00000000000000000000000000000000000000000000000000000000000000001690638803dbee90611911908d908f90879030904290600401612b3d565b600060405180830381600087803b15801561192b57600080fd5b505af115801561193f573d6000803e3d6000fd5b505050506040513d6000823e601f3d908101601f1916820160405261196791908101906124de565b90507fa078c4190abe07940190effc1846be0ccf03ad6007bc9e93f9697d0b460befbb8d8d8360008151811061199957fe5b6020026020010151846001865103815181106119b157fe5b60200260200101516040516119c99493929190612797565b60405180910390a1806000815181106119de57fe5b602002602001015197505050505050505095945050505050565b600082611a0757506000611639565b82820282848281611a1457fe5b04146116365760405162461bcd60e51b815260040161022b906129a1565b600061163683836040518060400160405280601a81526020017f536166654d6174683a206469766973696f6e206279207a65726f000000000000815250612112565b6000816001600160a01b031663313ce5676040518163ffffffff1660e01b815260040160206040518083038186803b158015611aaf57600080fd5b505afa158015611ac3573d6000803e3d6000fd5b505050506040513d601f19601f82011682018060405250810190611ae7919061265a565b60ff1692915050565b600080611afc85611f02565b9050611b10600a84900a610e7b86846119f8565b95945050505050565b6040805160028082526060828101909352829182918160200160208202803683370190505090508581600081518110611b4e57fe5b60200260200101906001600160a01b031690816001600160a01b0316815250508481600181518110611b7c57fe5b6001600160a01b0392909216602092830291909101820152604080516003808252608082019092526060928392839291820183803683370190505090507f00000000000000000000000000000000000000000000000000000000000000006001600160a01b0316896001600160a01b031614158015611c2d57507f00000000000000000000000000000000000000000000000000000000000000006001600160a01b0316886001600160a01b031614155b15611d99578881600081518110611c4057fe5b60200260200101906001600160a01b031690816001600160a01b0316815250507f000000000000000000000000000000000000000000000000000000000000000081600181518110611c8e57fe5b60200260200101906001600160a01b031690816001600160a01b0316815250508781600281518110611cbc57fe5b6001600160a01b0392831660209182029290920101526040516307c0329d60e21b81527f000000000000000000000000000000000000000000000000000000000000000090911690631f00ca7490611d1a908a908590600401612b24565b60006040518083038186803b158015611d3257600080fd5b505afa925050508015611d6757506040513d6000823e601f3d908101601f19168201604052611d6491908101906124de565b60015b611d9157604080516003808252608082019092529060208201606080368337019050509150611d94565b91505b611dbb565b6040805160038082526080820190925290602082016060803683370190505091505b6040516307c0329d60e21b81526001600160a01b037f00000000000000000000000000000000000000000000000000000000000000001690631f00ca7490611e09908a908890600401612b24565b60006040518083038186803b158015611e2157600080fd5b505afa925050508015611e5657506040513d6000823e601f3d908101601f19168201604052611e5391908101906124de565b60015b611e67579094509250611ece915050565b80935083600081518110611e7757fe5b602002602001015183600081518110611e8c57fe5b6020026020010151108015611eb6575082600081518110611ea957fe5b6020026020010151600014155b611ec1578385611ec4565b82825b9650965050505050505b935093915050565b60008184841115611efa5760405162461bcd60e51b815260040161022b9190612862565b505050900390565b60405163b3596f0760e01b81526000906001600160a01b037f0000000000000000000000000000000000000000000000000000000000000000169063b3596f0790611f51908590600401612735565b60206040518083038186803b158015611f6957600080fd5b505afa158015611f7d573d6000803e3d6000fd5b505050506040513d601f19601f820116820180604052508101906116399190612601565b6000821580611fae575081155b15611fbb57506000611639565b816113881981611fc757fe5b0483111560405180604001604052806002815260200161068760f31b815250906120045760405162461bcd60e51b815260040161022b9190612862565b50506127109102611388010490565b80158061209b5750604051636eb1769f60e11b81526001600160a01b0384169063dd62ed3e906120499030908690600401612749565b60206040518083038186803b15801561206157600080fd5b505afa158015612075573d6000803e3d6000fd5b505050506040513d601f19601f820116820180604052508101906120999190612601565b155b6120b75760405162461bcd60e51b815260040161022b90612a8e565b61210d8363095ea7b360e01b84846040516024016120d692919061283e565b60408051601f198184030181529190526020810180516001600160e01b03166001600160e01b031990931692909217909152612149565b505050565b600081836121335760405162461bcd60e51b815260040161022b9190612862565b50600083858161213f57fe5b0495945050505050565b61215b826001600160a01b0316612234565b6121775760405162461bcd60e51b815260040161022b90612ae4565b60006060836001600160a01b0316836040516121939190612719565b6000604051808303816000865af19150503d80600081146121d0576040519150601f19603f3d011682016040523d82523d6000602084013e6121d5565b606091505b5091509150816121f75760405162461bcd60e51b815260040161022b90612929565b80511561222e57808060200190518101906122129190612573565b61222e5760405162461bcd60e51b815260040161022b90612a44565b50505050565b6000813f7fc5d2460186f7233c927e7db2dcc703c0e500b653ca82273b7bfad8045d85a47081811480159061226857508115155b949350505050565b6040805160a08101825260008082526020820181905291810182905260608101829052608081019190915290565b6040518060a0016040528060008152602001600081526020016000815260200160008152602001606081525090565b60405180610100016040528060008152602001600081526020016000815260200160008152602001600081526020016000815260200160008152602001600081525090565b60008083601f840112612323578182fd5b50813567ffffffffffffffff81111561233a578182fd5b602083019150836020808302850101111561235457600080fd5b9250929050565b60006020828403121561236c578081fd5b813561163681612c22565b600080600080600060a0868803121561238e578081fd5b855161239981612c22565b60208701519095506123aa81612c22565b60408701519094506123bb81612c22565b6060870151608088015191945092506123d381612c3a565b809150509295509295909350565b600080600080600080600080600060a08a8c0312156123fe578384fd5b893567ffffffffffffffff80821115612415578586fd5b6124218d838e01612312565b909b50995060208c0135915080821115612439578586fd5b6124458d838e01612312565b909950975060408c013591508082111561245d578586fd5b6124698d838e01612312565b909750955060608c0135915061247e82612c22565b90935060808b01359080821115612493578384fd5b818c0191508c601f8301126124a6578384fd5b8135818111156124b4578485fd5b8d60208285010111156124c5578485fd5b6020830194508093505050509295985092959850929598565b600060208083850312156124f0578182fd5b825167ffffffffffffffff811115612506578283fd5b8301601f81018513612516578283fd5b805161252961252482612bd6565b612baf565b8181528381019083850185840285018601891015612545578687fd5b8694505b83851015612567578051835260019490940193918501918501612549565b50979650505050505050565b600060208284031215612584578081fd5b815161163681612c3a565b600060a082840312156125a0578081fd5b6125aa60a0612baf565b82356125b581612c22565b815260208301356125c581612c22565b602082015260408301356125d881612c22565b60408201526060838101359082015260808301356125f581612c3a565b60808201529392505050565b600060208284031215612612578081fd5b5051919050565b60008060006060848603121561262d578283fd5b83359250602084013561263f81612c22565b9150604084013561264f81612c22565b809150509250925092565b60006020828403121561266b578081fd5b815160ff81168114611636578182fd5b6000815180845260208085019450808401835b838110156126b35781516001600160a01b03168752958201959082019060010161268e565b509495945050505050565b6000815180845260208085019450808401835b838110156126b3578151875295820195908201906001016126d1565b60008151808452612705816020860160208601612bf6565b601f01601f19169290920160200192915050565b6000825161272b818460208701612bf6565b9190910192915050565b6001600160a01b0391909116815260200190565b6001600160a01b0392831681529116602082015260400190565b6001600160a01b03958616815293851660208501529190931660408301526060820192909252901515608082015260a00190565b6001600160a01b0394851681529290931660208301526040820152606081019190915260800190565b600060018060a01b03808a16835260e060208401526127e260e084018a61267b565b83810360408501526127f4818a6126be565b9050838103606085015261280881896126be565b9050818716608085015283810360a085015261282481876126ed565b9250505061ffff831660c083015298975050505050505050565b6001600160a01b03929092168252602082015260400190565b901515815260200190565b60006020825261163660208301846126ed565b6020808252601b908201527f43414c4c45525f4d5553545f42455f4c454e44494e475f504f4f4c0000000000604082015260600190565b60208082526026908201527f4f776e61626c653a206e6577206f776e657220697320746865207a65726f206160408201526564647265737360d01b606082015260800190565b6020808252601b908201527f536166654d6174683a206164646974696f6e206f766572666c6f770000000000604082015260600190565b6020808252818101527f5361666545524332303a206c6f772d6c6576656c2063616c6c206661696c6564604082015260600190565b60208082526023908201527f6d6178416d6f756e74546f5377617020657863656564206d617820736c69707060408201526261676560e81b606082015260800190565b60208082526021908201527f536166654d6174683a206d756c7469706c69636174696f6e206f766572666c6f6040820152607760f81b606082015260800190565b6020808252818101527f4f776e61626c653a2063616c6c6572206973206e6f7420746865206f776e6572604082015260600190565b602080825260139082015272494e434f4e53495354454e545f504152414d5360681b604082015260600190565b6020808252602a908201527f5361666545524332303a204552433230206f7065726174696f6e20646964206e6040820152691bdd081cdd58d8d9595960b21b606082015260800190565b60208082526036908201527f5361666545524332303a20617070726f76652066726f6d206e6f6e2d7a65726f60408201527520746f206e6f6e2d7a65726f20616c6c6f77616e636560501b606082015260800190565b6020808252601f908201527f5361666545524332303a2063616c6c20746f206e6f6e2d636f6e747261637400604082015260600190565b90815260200190565b600083825260406020830152612268604083018461267b565b600086825285602083015260a06040830152612b5c60a083018661267b565b6001600160a01b0394909416606083015250608001529392505050565b600086825285602083015284604083015283606083015260a06080830152612ba460a083018461267b565b979650505050505050565b60405181810167ffffffffffffffff81118282101715612bce57600080fd5b604052919050565b600067ffffffffffffffff821115612bec578081fd5b5060209081020190565b60005b83811015612c11578181015183820152602001612bf9565b8381111561222e5750506000910152565b6001600160a01b0381168114612c3757600080fd5b50565b8015158114612c3757600080fdfea2646970667358221220cdd4db3565fe4a0c03b2210fcedf7840b6d366d02f128d352665f1e8496726a264736f6c634300060c0033",
  "linkReferences": {},
  "deployedLinkReferences": {}
}